{
  "contractName": "Item",
  "abi": [
    {
      "inputs": [
        {
          "internalType": "contract ItemManager",
          "name": "_parentContract",
          "type": "address"
        },
        {
          "internalType": "uint256",
          "name": "_priceInWei",
          "type": "uint256"
        },
        {
          "internalType": "uint256",
          "name": "_index",
          "type": "uint256"
        }
      ],
      "stateMutability": "nonpayable",
      "type": "constructor"
    },
    {
      "inputs": [],
      "name": "index",
      "outputs": [
        {
          "internalType": "uint256",
          "name": "",
          "type": "uint256"
        }
      ],
      "stateMutability": "view",
      "type": "function"
    },
    {
      "inputs": [],
      "name": "priceInWei",
      "outputs": [
        {
          "internalType": "uint256",
          "name": "",
          "type": "uint256"
        }
      ],
      "stateMutability": "view",
      "type": "function"
    },
    {
      "stateMutability": "payable",
      "type": "receive"
    }
  ],
  "bytecode": "0x608060405234801561001057600080fd5b5060405161072e38038061072e833981810160405281019061003291906100b3565b816000819055508060028190555082600360006101000a81548173ffffffffffffffffffffffffffffffffffffffff021916908373ffffffffffffffffffffffffffffffffffffffff160217905550505050610187565b60008151905061009881610159565b92915050565b6000815190506100ad81610170565b92915050565b6000806000606084860312156100cc576100cb610154565b5b60006100da86828701610089565b93505060206100eb8682870161009e565b92505060406100fc8682870161009e565b9150509250925092565b60006101118261012a565b9050919050565b600061012382610106565b9050919050565b600073ffffffffffffffffffffffffffffffffffffffff82169050919050565b6000819050919050565b600080fd5b61016281610118565b811461016d57600080fd5b50565b6101798161014a565b811461018457600080fd5b50565b610598806101966000396000f3fe60806040526004361061002d5760003560e01c80632986c0e51461023b5780633c8da5881461026657610236565b3661023657600060015414610077576040517f08c379a000000000000000000000000000000000000000000000000000000000815260040161006e9061039d565b60405180910390fd5b34600054146100bb576040517f08c379a00000000000000000000000000000000000000000000000000000000081526004016100b29061035d565b60405180910390fd5b34600160008282546100cd91906103ff565b925050819055506000600360009054906101000a900473ffffffffffffffffffffffffffffffffffffffff1673ffffffffffffffffffffffffffffffffffffffff163460025460405160240161012391906103bd565b6040516020818303038152906040527f800fb83f000000000000000000000000000000000000000000000000000000007bffffffffffffffffffffffffffffffffffffffffffffffffffffffff19166020820180517bffffffffffffffffffffffffffffffffffffffffffffffffffffffff83818316178352505050506040516101ad9190610346565b60006040518083038185875af1925050503d80600081146101ea576040519150601f19603f3d011682016040523d82523d6000602084013e6101ef565b606091505b5050905080610233576040517f08c379a000000000000000000000000000000000000000000000000000000000815260040161022a9061037d565b60405180910390fd5b50005b600080fd5b34801561024757600080fd5b50610250610291565b60405161025d91906103bd565b60405180910390f35b34801561027257600080fd5b5061027b610297565b60405161028891906103bd565b60405180910390f35b60025481565b60005481565b60006102a8826103d8565b6102b281856103e3565b93506102c281856020860161045f565b80840191505092915050565b60006102db601b836103ee565b91506102e6826104c1565b602082019050919050565b60006102fe602b836103ee565b9150610309826104ea565b604082019050919050565b60006103216014836103ee565b915061032c82610539565b602082019050919050565b61034081610455565b82525050565b6000610352828461029d565b915081905092915050565b60006020820190508181036000830152610376816102ce565b9050919050565b60006020820190508181036000830152610396816102f1565b9050919050565b600060208201905081810360008301526103b681610314565b9050919050565b60006020820190506103d26000830184610337565b92915050565b600081519050919050565b600081905092915050565b600082825260208201905092915050565b600061040a82610455565b915061041583610455565b9250827fffffffffffffffffffffffffffffffffffffffffffffffffffffffffffffffff0382111561044a57610449610492565b5b828201905092915050565b6000819050919050565b60005b8381101561047d578082015181840152602081019050610462565b8381111561048c576000848401525b50505050565b7f4e487b7100000000000000000000000000000000000000000000000000000000600052601160045260246000fd5b7f4f6e6c792066756c6c207061796d656e74732061636365707465640000000000600082015250565b7f746865207472616e73616374696f6e207761736e74207375636365737366756c60008201527f2c63616e63656c6c696e67000000000000000000000000000000000000000000602082015250565b7f4974656d20697320616c7265616479207061696400000000000000000000000060008201525056fea2646970667358221220eb98142da992cbd39dc00867296ce3fba4dce3c201f854d6f86ec404c9e9345064736f6c63430008070033",
  "immutableReferences": {},
  "source": "pragma solidity ^0.8.0;\nimport \"./ItemManager.sol\";\ncontract Item{\n    uint public priceInWei;\n    uint pricePaid;\n    uint public index;\n    ItemManager parentContract;\n    constructor(ItemManager _parentContract, uint _priceInWei,uint _index){\n        priceInWei=_priceInWei;\n        index= _index;\n        parentContract= _parentContract;\n    }\n\n    receive() external payable{\n        require(pricePaid==0,\"Item is already paid\");\n        require(priceInWei==msg.value,\"Only full payments accepted\");\n        pricePaid+=msg.value;\n        (bool success,)=address(parentContract).call{value: msg.value}(abi.encodeWithSignature(\"triggerPayment(uint256)\",index));\n        require(success,\"the transaction wasnt successful,cancelling\");\n    }\n\n}\n",
  "sourcePath": "/Users/aryapatki/Documents/PROJECTS/SupplyChainProj/contracts/Item.sol",
  "compiler": {
    "name": "solc",
    "version": "0.8.7+commit.e28d00a7.Emscripten.clang"
  },
  "schemaVersion": "3.4.4",
  "updatedAt": "2022-02-07T13:34:28.775Z",
  "devdoc": {
    "kind": "dev",
    "methods": {},
    "version": 1
  },
  "userdoc": {
    "kind": "user",
    "methods": {},
    "version": 1
  }
}