{
  "contractName": "ItemManager",
  "abi": [
    {
      "anonymous": false,
      "inputs": [
        {
          "indexed": true,
          "internalType": "address",
          "name": "previousOwner",
          "type": "address"
        },
        {
          "indexed": true,
          "internalType": "address",
          "name": "newOwner",
          "type": "address"
        }
      ],
      "name": "OwnershipTransferred",
      "type": "event"
    },
    {
      "anonymous": false,
      "inputs": [
        {
          "indexed": false,
          "internalType": "uint256",
          "name": "_itemIndex",
          "type": "uint256"
        },
        {
          "indexed": false,
          "internalType": "uint256",
          "name": "_step",
          "type": "uint256"
        },
        {
          "indexed": false,
          "internalType": "address",
          "name": "itemAddress",
          "type": "address"
        }
      ],
      "name": "SupplyChainStep",
      "type": "event"
    },
    {
      "inputs": [
        {
          "internalType": "uint256",
          "name": "",
          "type": "uint256"
        }
      ],
      "name": "items",
      "outputs": [
        {
          "internalType": "contract Item",
          "name": "_item",
          "type": "address"
        },
        {
          "internalType": "string",
          "name": "_identifier",
          "type": "string"
        },
        {
          "internalType": "uint256",
          "name": "_itemPrice",
          "type": "uint256"
        },
        {
          "internalType": "enum ItemManager.SupplyChainState",
          "name": "_state",
          "type": "uint8"
        }
      ],
      "stateMutability": "view",
      "type": "function",
      "constant": true
    },
    {
      "inputs": [],
      "name": "owner",
      "outputs": [
        {
          "internalType": "address",
          "name": "",
          "type": "address"
        }
      ],
      "stateMutability": "view",
      "type": "function",
      "constant": true
    },
    {
      "inputs": [],
      "name": "renounceOwnership",
      "outputs": [],
      "stateMutability": "nonpayable",
      "type": "function"
    },
    {
      "inputs": [
        {
          "internalType": "address",
          "name": "newOwner",
          "type": "address"
        }
      ],
      "name": "transferOwnership",
      "outputs": [],
      "stateMutability": "nonpayable",
      "type": "function"
    },
    {
      "inputs": [
        {
          "internalType": "string",
          "name": "_identifier",
          "type": "string"
        },
        {
          "internalType": "uint256",
          "name": "_itemPrice",
          "type": "uint256"
        }
      ],
      "name": "createItem",
      "outputs": [],
      "stateMutability": "nonpayable",
      "type": "function"
    },
    {
      "inputs": [
        {
          "internalType": "uint256",
          "name": "_itemIndex",
          "type": "uint256"
        }
      ],
      "name": "triggerPayment",
      "outputs": [],
      "stateMutability": "payable",
      "type": "function",
      "payable": true
    },
    {
      "inputs": [
        {
          "internalType": "uint256",
          "name": "_itemIndex",
          "type": "uint256"
        }
      ],
      "name": "triggerDelivery",
      "outputs": [],
      "stateMutability": "nonpayable",
      "type": "function"
    }
  ],
  "bytecode": "0x608060405234801561001057600080fd5b5061002d61002261003260201b60201c565b61003a60201b60201c565b6100fe565b600033905090565b60008060009054906101000a900473ffffffffffffffffffffffffffffffffffffffff169050816000806101000a81548173ffffffffffffffffffffffffffffffffffffffff021916908373ffffffffffffffffffffffffffffffffffffffff1602179055508173ffffffffffffffffffffffffffffffffffffffff168173ffffffffffffffffffffffffffffffffffffffff167f8be0079c531659141344cd1fd0a4f28419497f9722a3daafe3b4186f6b6457e060405160405180910390a35050565b611bd98061010d6000396000f3fe6080604052600436106200007a5760003560e01c80638da5cb5b11620000555780638da5cb5b14620000e7578063bfb231d21462000117578063cd31831e146200015e578063f2fde38b146200018c576200007a565b8063715018a6146200007f578063800fb83f14620000995780638c55174214620000b9575b600080fd5b3480156200008c57600080fd5b5062000097620001ba565b005b620000b76004803603810190620000b1919062000d63565b6200024b565b005b348015620000c657600080fd5b50620000e56004803603810190620000df919062000cfd565b6200042c565b005b348015620000f457600080fd5b50620000ff62000671565b6040516200010e919062000ec7565b60405180910390f35b3480156200012457600080fd5b506200014360048036038101906200013d919062000d63565b6200069a565b60405162000155949392919062000f21565b60405180910390f35b3480156200016b57600080fd5b506200018a600480360381019062000184919062000d63565b62000787565b005b3480156200019957600080fd5b50620001b86004803603810190620001b2919062000ccb565b62000991565b005b620001c462000a95565b73ffffffffffffffffffffffffffffffffffffffff16620001e462000671565b73ffffffffffffffffffffffffffffffffffffffff16146200023d576040517f08c379a0000000000000000000000000000000000000000000000000000000008152600401620002349062000fb9565b60405180910390fd5b62000249600062000a9d565b565b34600160008381526020019081526020016000206002015414620002a6576040517f08c379a00000000000000000000000000000000000000000000000000000000081526004016200029d9062000fdb565b60405180910390fd5b60006002811115620002bd57620002bc620012ae565b5b6001600083815260200190815260200160002060030160009054906101000a900460ff166002811115620002f657620002f5620012ae565b5b1462000339576040517f08c379a0000000000000000000000000000000000000000000000000000000008152600401620003309062000f75565b60405180910390fd5b600180600083815260200190815260200160002060030160006101000a81548160ff02191690836002811115620003755762000374620012ae565b5b02179055507fa4035636e99f06b7651a604c1019fa4e8779fe68ef27eeb74dff2de348f6199b60025460016000600254815260200190815260200160002060030160009054906101000a900460ff166002811115620003d957620003d8620012ae565b5b6001600085815260200190815260200160002060000160009054906101000a900473ffffffffffffffffffffffffffffffffffffffff16604051620004219392919062000ffd565b60405180910390a150565b6200043662000a95565b73ffffffffffffffffffffffffffffffffffffffff166200045662000671565b73ffffffffffffffffffffffffffffffffffffffff1614620004af576040517f08c379a0000000000000000000000000000000000000000000000000000000008152600401620004a69062000fb9565b60405180910390fd5b60003082600254604051620004c49062000b61565b620004d29392919062000ee4565b604051809103906000f080158015620004ef573d6000803e3d6000fd5b5090508060016000600254815260200190815260200160002060000160006101000a81548173ffffffffffffffffffffffffffffffffffffffff021916908373ffffffffffffffffffffffffffffffffffffffff1602179055508260016000600254815260200190815260200160002060010190805190602001906200057792919062000b6f565b508160016000600254815260200190815260200160002060020181905550600060016000600254815260200190815260200160002060030160006101000a81548160ff02191690836002811115620005d457620005d3620012ae565b5b02179055507fa4035636e99f06b7651a604c1019fa4e8779fe68ef27eeb74dff2de348f6199b60025460016000600254815260200190815260200160002060030160009054906101000a900460ff166002811115620006385762000637620012ae565b5b836040516200064a9392919062000ffd565b60405180910390a160026000815480929190620006679062001231565b9190505550505050565b60008060009054906101000a900473ffffffffffffffffffffffffffffffffffffffff16905090565b60016020528060005260406000206000915090508060000160009054906101000a900473ffffffffffffffffffffffffffffffffffffffff1690806001018054620006e590620011c5565b80601f01602080910402602001604051908101604052809291908181526020018280546200071390620011c5565b8015620007645780601f10620007385761010080835404028352916020019162000764565b820191906000526020600020905b8154815290600101906020018083116200074657829003601f168201915b5050505050908060020154908060030160009054906101000a900460ff16905084565b6200079162000a95565b73ffffffffffffffffffffffffffffffffffffffff16620007b162000671565b73ffffffffffffffffffffffffffffffffffffffff16146200080a576040517f08c379a0000000000000000000000000000000000000000000000000000000008152600401620008019062000fb9565b60405180910390fd5b60016002811115620008215762000820620012ae565b5b6001600083815260200190815260200160002060030160009054906101000a900460ff1660028111156200085a5762000859620012ae565b5b146200089d576040517f08c379a0000000000000000000000000000000000000000000000000000000008152600401620008949062000f75565b60405180910390fd5b60026001600083815260200190815260200160002060030160006101000a81548160ff02191690836002811115620008da57620008d9620012ae565b5b02179055507fa4035636e99f06b7651a604c1019fa4e8779fe68ef27eeb74dff2de348f6199b60025460016000600254815260200190815260200160002060030160009054906101000a900460ff1660028111156200093e576200093d620012ae565b5b6001600085815260200190815260200160002060000160009054906101000a900473ffffffffffffffffffffffffffffffffffffffff16604051620009869392919062000ffd565b60405180910390a150565b6200099b62000a95565b73ffffffffffffffffffffffffffffffffffffffff16620009bb62000671565b73ffffffffffffffffffffffffffffffffffffffff161462000a14576040517f08c379a000000000000000000000000000000000000000000000000000000000815260040162000a0b9062000fb9565b60405180910390fd5b600073ffffffffffffffffffffffffffffffffffffffff168173ffffffffffffffffffffffffffffffffffffffff16141562000a87576040517f08c379a000000000000000000000000000000000000000000000000000000000815260040162000a7e9062000f97565b60405180910390fd5b62000a928162000a9d565b50565b600033905090565b60008060009054906101000a900473ffffffffffffffffffffffffffffffffffffffff169050816000806101000a81548173ffffffffffffffffffffffffffffffffffffffff021916908373ffffffffffffffffffffffffffffffffffffffff1602179055508173ffffffffffffffffffffffffffffffffffffffff168173ffffffffffffffffffffffffffffffffffffffff167f8be0079c531659141344cd1fd0a4f28419497f9722a3daafe3b4186f6b6457e060405160405180910390a35050565b61072e806200147683390190565b82805462000b7d90620011c5565b90600052602060002090601f01602090048101928262000ba1576000855562000bed565b82601f1062000bbc57805160ff191683800117855562000bed565b8280016001018555821562000bed579182015b8281111562000bec57825182559160200191906001019062000bcf565b5b50905062000bfc919062000c00565b5090565b5b8082111562000c1b57600081600090555060010162000c01565b5090565b600062000c3662000c308462001063565b6200103a565b90508281526020810184848401111562000c555762000c5462001340565b5b62000c6284828562001180565b509392505050565b60008135905062000c7b8162001441565b92915050565b600082601f83011262000c995762000c986200133b565b5b813562000cab84826020860162000c1f565b91505092915050565b60008135905062000cc5816200145b565b92915050565b60006020828403121562000ce45762000ce36200134a565b5b600062000cf48482850162000c6a565b91505092915050565b6000806040838503121562000d175762000d166200134a565b5b600083013567ffffffffffffffff81111562000d385762000d3762001345565b5b62000d468582860162000c81565b925050602062000d598582860162000cb4565b9150509250929050565b60006020828403121562000d7c5762000d7b6200134a565b5b600062000d8c8482850162000cb4565b91505092915050565b62000da081620010b5565b82525050565b62000db18162001108565b82525050565b62000dc2816200111c565b82525050565b62000dd38162001130565b82525050565b600062000de68262001099565b62000df28185620010a4565b935062000e048185602086016200118f565b62000e0f816200134f565b840191505092915050565b600062000e29601c83620010a4565b915062000e368262001360565b602082019050919050565b600062000e50602683620010a4565b915062000e5d8262001389565b604082019050919050565b600062000e77602083620010a4565b915062000e8482620013d8565b602082019050919050565b600062000e9e601b83620010a4565b915062000eab8262001401565b602082019050919050565b62000ec181620010fe565b82525050565b600060208201905062000ede600083018462000d95565b92915050565b600060608201905062000efb600083018662000da6565b62000f0a602083018562000eb6565b62000f19604083018462000eb6565b949350505050565b600060808201905062000f38600083018762000db7565b818103602083015262000f4c818662000dd9565b905062000f5d604083018562000eb6565b62000f6c606083018462000dc8565b95945050505050565b6000602082019050818103600083015262000f908162000e1a565b9050919050565b6000602082019050818103600083015262000fb28162000e41565b9050919050565b6000602082019050818103600083015262000fd48162000e68565b9050919050565b6000602082019050818103600083015262000ff68162000e8f565b9050919050565b600060608201905062001014600083018662000eb6565b62001023602083018562000eb6565b62001032604083018462000d95565b949350505050565b60006200104662001059565b9050620010548282620011fb565b919050565b6000604051905090565b600067ffffffffffffffff8211156200108157620010806200130c565b5b6200108c826200134f565b9050602081019050919050565b600081519050919050565b600082825260208201905092915050565b6000620010c282620010de565b9050919050565b6000819050620010d9826200142a565b919050565b600073ffffffffffffffffffffffffffffffffffffffff82169050919050565b6000819050919050565b6000620011158262001144565b9050919050565b6000620011298262001158565b9050919050565b60006200113d82620010c9565b9050919050565b600062001151826200116c565b9050919050565b600062001165826200116c565b9050919050565b60006200117982620010de565b9050919050565b82818337600083830152505050565b60005b83811015620011af57808201518184015260208101905062001192565b83811115620011bf576000848401525b50505050565b60006002820490506001821680620011de57607f821691505b60208210811415620011f557620011f4620012dd565b5b50919050565b62001206826200134f565b810181811067ffffffffffffffff821117156200122857620012276200130c565b5b80604052505050565b60006200123e82620010fe565b91507fffffffffffffffffffffffffffffffffffffffffffffffffffffffffffffffff8214156200127457620012736200127f565b5b600182019050919050565b7f4e487b7100000000000000000000000000000000000000000000000000000000600052601160045260246000fd5b7f4e487b7100000000000000000000000000000000000000000000000000000000600052602160045260246000fd5b7f4e487b7100000000000000000000000000000000000000000000000000000000600052602260045260246000fd5b7f4e487b7100000000000000000000000000000000000000000000000000000000600052604160045260246000fd5b600080fd5b600080fd5b600080fd5b600080fd5b6000601f19601f8301169050919050565b7f4974656d206973206675727468657220696e2074686520636861696e00000000600082015250565b7f4f776e61626c653a206e6577206f776e657220697320746865207a65726f206160008201527f6464726573730000000000000000000000000000000000000000000000000000602082015250565b7f4f776e61626c653a2063616c6c6572206973206e6f7420746865206f776e6572600082015250565b7f6f6e6c792066756c6c207061796d656e74732061636365707465640000000000600082015250565b600381106200143e576200143d620012ae565b5b50565b6200144c81620010b5565b81146200145857600080fd5b50565b6200146681620010fe565b81146200147257600080fd5b5056fe608060405234801561001057600080fd5b5060405161072e38038061072e833981810160405281019061003291906100b3565b816000819055508060028190555082600360006101000a81548173ffffffffffffffffffffffffffffffffffffffff021916908373ffffffffffffffffffffffffffffffffffffffff160217905550505050610187565b60008151905061009881610159565b92915050565b6000815190506100ad81610170565b92915050565b6000806000606084860312156100cc576100cb610154565b5b60006100da86828701610089565b93505060206100eb8682870161009e565b92505060406100fc8682870161009e565b9150509250925092565b60006101118261012a565b9050919050565b600061012382610106565b9050919050565b600073ffffffffffffffffffffffffffffffffffffffff82169050919050565b6000819050919050565b600080fd5b61016281610118565b811461016d57600080fd5b50565b6101798161014a565b811461018457600080fd5b50565b610598806101966000396000f3fe60806040526004361061002d5760003560e01c80632986c0e51461023b5780633c8da5881461026657610236565b3661023657600060015414610077576040517f08c379a000000000000000000000000000000000000000000000000000000000815260040161006e9061039d565b60405180910390fd5b34600054146100bb576040517f08c379a00000000000000000000000000000000000000000000000000000000081526004016100b29061035d565b60405180910390fd5b34600160008282546100cd91906103ff565b925050819055506000600360009054906101000a900473ffffffffffffffffffffffffffffffffffffffff1673ffffffffffffffffffffffffffffffffffffffff163460025460405160240161012391906103bd565b6040516020818303038152906040527f800fb83f000000000000000000000000000000000000000000000000000000007bffffffffffffffffffffffffffffffffffffffffffffffffffffffff19166020820180517bffffffffffffffffffffffffffffffffffffffffffffffffffffffff83818316178352505050506040516101ad9190610346565b60006040518083038185875af1925050503d80600081146101ea576040519150601f19603f3d011682016040523d82523d6000602084013e6101ef565b606091505b5050905080610233576040517f08c379a000000000000000000000000000000000000000000000000000000000815260040161022a9061037d565b60405180910390fd5b50005b600080fd5b34801561024757600080fd5b50610250610291565b60405161025d91906103bd565b60405180910390f35b34801561027257600080fd5b5061027b610297565b60405161028891906103bd565b60405180910390f35b60025481565b60005481565b60006102a8826103d8565b6102b281856103e3565b93506102c281856020860161045f565b80840191505092915050565b60006102db601b836103ee565b91506102e6826104c1565b602082019050919050565b60006102fe602b836103ee565b9150610309826104ea565b604082019050919050565b60006103216014836103ee565b915061032c82610539565b602082019050919050565b61034081610455565b82525050565b6000610352828461029d565b915081905092915050565b60006020820190508181036000830152610376816102ce565b9050919050565b60006020820190508181036000830152610396816102f1565b9050919050565b600060208201905081810360008301526103b681610314565b9050919050565b60006020820190506103d26000830184610337565b92915050565b600081519050919050565b600081905092915050565b600082825260208201905092915050565b600061040a82610455565b915061041583610455565b9250827fffffffffffffffffffffffffffffffffffffffffffffffffffffffffffffffff0382111561044a57610449610492565b5b828201905092915050565b6000819050919050565b60005b8381101561047d578082015181840152602081019050610462565b8381111561048c576000848401525b50505050565b7f4e487b7100000000000000000000000000000000000000000000000000000000600052601160045260246000fd5b7f4f6e6c792066756c6c207061796d656e74732061636365707465640000000000600082015250565b7f746865207472616e73616374696f6e207761736e74207375636365737366756c60008201527f2c63616e63656c6c696e67000000000000000000000000000000000000000000602082015250565b7f4974656d20697320616c7265616479207061696400000000000000000000000060008201525056fea2646970667358221220eb98142da992cbd39dc00867296ce3fba4dce3c201f854d6f86ec404c9e9345064736f6c63430008070033a26469706673582212208b2b5c199c344cc5820b51327046270e7d81dd0df04bfb8e3014594dbf20690164736f6c63430008070033",
  "immutableReferences": {},
  "source": "pragma solidity ^0.8.0;\n\nimport \"@openzeppelin/contracts/access/Ownable.sol\";\n\nimport \"./Item.sol\";\n\ncontract ItemManager is Ownable{\n    enum SupplyChainState{Created, Paid, Delivered}\n\n    struct S_Item{\n        Item _item;\n        string _identifier;\n        uint _itemPrice;\n        ItemManager.SupplyChainState _state;\n    }\n    event SupplyChainStep(uint _itemIndex, uint _step, address itemAddress);\n\n    mapping(uint=> S_Item) public items;\n    uint itemIndex;\n    function createItem(string memory _identifier, uint _itemPrice) public onlyOwner{\n        Item item=new Item(this, _itemPrice, itemIndex);\n        items[itemIndex]._item=item;\n       items[itemIndex]._identifier=_identifier;\n        items[itemIndex]._itemPrice= _itemPrice;\n        items[itemIndex]._state= SupplyChainState.Created;\n        emit SupplyChainStep(itemIndex, uint(items[itemIndex]._state), address(item));\n\n        itemIndex++;\n    }\n\n    function triggerPayment(uint _itemIndex) public payable{\n        require(items[_itemIndex]._itemPrice==msg.value,\"only full payments accepted\");\n        require(items[_itemIndex]._state==SupplyChainState.Created,\"Item is further in the chain\");\n        items[_itemIndex]._state=SupplyChainState.Paid;\n        emit SupplyChainStep(itemIndex, uint(items[itemIndex]._state),address(items[_itemIndex]._item));\n\n    }\n\n    function triggerDelivery(uint _itemIndex) public onlyOwner{\n        require(items[_itemIndex]._state==SupplyChainState.Paid, \"Item is further in the chain\");\n        items[_itemIndex]._state=SupplyChainState.Delivered;\n        emit SupplyChainStep(itemIndex, uint(items[itemIndex]._state), address(items[_itemIndex]._item));\n\n    }\n\n}\n",
  "sourcePath": "/Users/aryapatki/Documents/PROJECTS/SupplyChainProj/contracts/ItemManager.sol",
  "compiler": {
    "name": "solc",
    "version": "0.8.7+commit.e28d00a7.Emscripten.clang"
  },
  "schemaVersion": "3.4.4",
  "updatedAt": "2022-02-07T16:22:25.137Z",
  "networkType": "ethereum",
  "devdoc": {
    "kind": "dev",
    "methods": {
      "owner()": {
        "details": "Returns the address of the current owner."
      },
      "renounceOwnership()": {
        "details": "Leaves the contract without owner. It will not be possible to call `onlyOwner` functions anymore. Can only be called by the current owner. NOTE: Renouncing ownership will leave the contract without an owner, thereby removing any functionality that is only available to the owner."
      },
      "transferOwnership(address)": {
        "details": "Transfers ownership of the contract to a new account (`newOwner`). Can only be called by the current owner."
      }
    },
    "version": 1
  },
  "userdoc": {
    "kind": "user",
    "methods": {},
    "version": 1
  }
}